{
  "contractName": "StartStopUpdateExample",
  "abi": [
    {
      "inputs": [],
      "stateMutability": "nonpayable",
      "type": "constructor"
    },
    {
      "inputs": [],
      "name": "owner",
      "outputs": [
        {
          "internalType": "address",
          "name": "",
          "type": "address"
        }
      ],
      "stateMutability": "view",
      "type": "function"
    },
    {
      "inputs": [],
      "name": "sendMoney",
      "outputs": [],
      "stateMutability": "payable",
      "type": "function"
    },
    {
      "inputs": [
        {
          "internalType": "address payable",
          "name": "_to",
          "type": "address"
        }
      ],
      "name": "withdrawAllMoney",
      "outputs": [],
      "stateMutability": "nonpayable",
      "type": "function"
    }
  ],
  "bytecode": "0x608060405234801561001057600080fd5b50336000806101000a81548173ffffffffffffffffffffffffffffffffffffffff021916908373ffffffffffffffffffffffffffffffffffffffff16021790555061030b806100606000396000f3fe6080604052600436106100345760003560e01c80630adec93c146100395780638da5cb5b14610062578063cbedbf5a1461008d575b600080fd5b34801561004557600080fd5b50610060600480360381019061005b91906101aa565b610097565b005b34801561006e57600080fd5b5061007761016f565b6040516100849190610205565b60405180910390f35b610095610193565b005b3373ffffffffffffffffffffffffffffffffffffffff1660008054906101000a900473ffffffffffffffffffffffffffffffffffffffff1673ffffffffffffffffffffffffffffffffffffffff1614610125576040517f08c379a000000000000000000000000000000000000000000000000000000000815260040161011c90610220565b60405180910390fd5b8073ffffffffffffffffffffffffffffffffffffffff166108fc479081150290604051600060405180830381858888f1935050505015801561016b573d6000803e3d6000fd5b5050565b60008054906101000a900473ffffffffffffffffffffffffffffffffffffffff1681565b565b6000813590506101a4816102be565b92915050565b6000602082840312156101bc57600080fd5b60006101ca84828501610195565b91505092915050565b6101dc81610251565b82525050565b60006101ef601483610240565b91506101fa82610295565b602082019050919050565b600060208201905061021a60008301846101d3565b92915050565b60006020820190508181036000830152610239816101e2565b9050919050565b600082825260208201905092915050565b600061025c82610275565b9050919050565b600061026e82610275565b9050919050565b600073ffffffffffffffffffffffffffffffffffffffff82169050919050565b7f596f752063616e6e6f742077697468647261772e000000000000000000000000600082015250565b6102c781610263565b81146102d257600080fd5b5056fea2646970667358221220f32c87798ad5455eb04eeeaefa4ebead362659ab27ac52b58335390f19fc05df64736f6c63430008010033",
  "immutableReferences": {},
  "source": "// SPDX-License-Identifier: GPL-3.0\r\npragma solidity ^0.8.1;\r\n\r\ncontract StartStopUpdateExample {\r\n    \r\n    address public owner;\r\n        constructor() {\r\n        owner = msg.sender;\r\n        }\r\n        \r\n        function sendMoney() public payable {\r\n    }\r\n        \r\n        function withdrawAllMoney(address payable _to) public {\r\n            require(owner == msg.sender, \"You cannot withdraw.\");\r\n        _to.transfer(address(this).balance);\r\n    }\r\n}",
  "sourcePath": "C:\\Users\\FAVOUR\\Downloads\\cmder\\send-stop-contract\\contracts\\send-stop.sol",
  "compiler": {
    "name": "solc",
    "version": "0.8.1+commit.df193b15.Emscripten.clang"
  },
  "schemaVersion": "3.4.3",
  "updatedAt": "2021-09-15T01:17:48.906Z",
  "devdoc": {
    "kind": "dev",
    "methods": {},
    "version": 1
  },
  "userdoc": {
    "kind": "user",
    "methods": {},
    "version": 1
  }
}